:100000000C940F050C942C050C942C050C942C05C9
:100010000C942C050C942C050C942C050C942C059C
:100020000C942C050C942C050C94D31B0C940F1BD6
:100030000C9431150C942C050C942C050C942C0567
:100040000C942C050C942C050C942C050C942C056C
:100050000C942C050C94BF140C942C050C942C05BA
:100060000C942C050C942C050C942C050C942C054C
:100070000C942C050C942C050C942C050C942C053C
:100080000C942C050C942C050C942C050C942C052C
:100090000C942C050C942C050C942C050C942C051C
:1000A0000C942C050C942C050C942C05D107D3072B
:1000B000DE07D507D707D907DB07DD07E007E2072B
:1000C000E407EF07E607E807EA07EC07EE07F107A2
:1000D0007D087D08BB08BB08F7081709E90A420B31
:1000E0005909420B460A460A530A530A530A530A4D
:1000F000530A530A530A530A530A530A530A530A18
:10010000530A530A530A530A640A8C0A910A980A3A
:10011000B00ABA0CBD0CC00CC30CC60CC90CCC0C7C
:100120006A176F1779176D177217771775172019D8
:100130004719E71A4719E71A8F19B219E71AB01ABF
:10014000C31A31203120442044203A204420442046
:100150004420312031203F20442044203F201650AD
:10016000015535620255010000001E0014000464B0
:100170001D4901002B001F001A0016611B000754C7
:10018000296820000800070006002A002D412100F0
:100190001500094A19002C00FD5C220017000A0016
:1001A0000500000002534600045300003102000025
:1001B000FA5C49000353000024020000FB5C2300AA
:1001C0001C000B00110000000553240018000D0056
:1001D00010002F00FE5C25000C000E0036003000E1
:1001E0002C62260012000F613700075428482700B0
:1001F00013003364380001000753FC5C015534746C
:100200000255010000001050010001000100010032
:1002100000003A001E022F642202010001003B0090
:100220001F0230612002010001003C002F02260263
:100230002302010001003D003002270221022D02AD
:1002400001003E0036022E003702000001000100CE
:10025000310200003400000001000100240200000F
:100260003402000001003F0031005700560000003A
:1002700001004000240021001E0027000100410071
:10028000250022001F006300010042002600230019
:1002900020008500586843003300550054002E00AC
:1002A0000100010044002A00450001000000105038
:1002B00026022A000100010000000100270255006B
:1002C00054000100010001005F005C005900620061
:1002D0000100010060005D005A00630001000100A0
:1002E00061005E005B003600010001002E00570037
:1002F000560000000100010001000000580000004D
:1003000001000100010000000100000001000100E7
:1003100001000100010000000100010001000100D6
:1003200001000100010001000100010001000100C5
:1003300001000100010001000100010001000100B5
:1003400001000100010001000100010001000100A5
:100350000100010000001050010001000100010037
:100360000000010001000100010001000100010086
:100370000100010001000100010001000100010075
:100380000100010001000100010001000100010065
:100390000100010001000100010000000100010056
:1003A0000100000001000000010001000100000048
:1003B00058000000010001002E0057005600000008
:1003C000010001005F005C005900620001000100B3
:1003D00060005D005A0063000100010061005E00E2
:1003E0005B00850001000100260255005400010059
:1003F0000100010027022A00010001000000105046
:10040000010029001D010100000001001A01B600D1
:10041000B7000100F6000100F900F2001B01010025
:10042000F5000100F000F10006010100F4000100F8
:10043000FA00F3001901FD00010001002B012B035C
:100440001501000001000100010000000100000092
:100450000100010001000000010000000100010096
:100460000100010001000000010001000100010085
:100470000100010001000100010001000100010074
:100480000100010001000100010001000100010064
:100490000100010001000100010001000100010054
:1004A00001000100000010500100010001000100E6
:1004B0000000010001000100010001000100010035
:1004C0000100010001000100010001000100010024
:1004D0000100010001000100010001000100010014
:1004E0000100010001000100010000000100010005
:1004F00001000000010000000100010001000000F7
:1005000001000000010001002B012B031501000078
:1005100001000100FA00F2001901FD0001000100D4
:10052000F000F10006010100F4000100F900F30001
:100530001B010100F50001001A01B600B70001001F
:10054000F6000100010029001D010100000010500B
:10055000010001000100010000001E001400040061
:100560001D00010001001F001A0016001B00010001
:100570000100200008000700060001000100210022
:1005800015000900190001000100220017000A00EF
:100590000500000001000100010000000100000052
:1005A0000100010001000000010000000100230023
:1005B0001C000B00110000000100240018000D00B9
:1005C00010002F00010025000C000E003600300046
:1005D0000100260012000F00370001000100270073
:1005E0001300330038000100010001000100010088
:1005F0000100010000001050010034000100010062
:10060000000027001300330038000100010026001D
:1006100012000F0037000100010025000C000E0041
:1006200036002F000100240018000D0010003000DB
:10063000010023001C000B0011000000010001005C
:1006400001000000010000000100010001000000A5
:10065000010000000100220017000A000500000050
:10066000010021001500090019002C0001002000E4
:100670000800070006002A0001001F001A001600EB
:100680001B00010001001E00140004001D000100F9
:1006900001000100010035000100010000001050C0
:1006A000010029001D010100000001001A01E20003
:1006B000E0000100F6000100F900F2001B0101005A
:1006C000F5000100F000F10006010100F400010056
:1006D000FA00F30019010100010001002B012B03B6
:1006E0001501000001000100A9000000AA0000009F
:1006F00001000100B3000000A8000000010001009B
:10070000AE00AB00AC000000010001004A00500048
:100710004B000100010001005200510028000100BF
:10072000010001004D004F004E00010001000100DA
:100730002B00E200E00001000100010001000100C7
:100740000100010000001050010001000100010043
:10075000000001000F0F0100010001000100010075
:100760000100E000500001002800010001005200DB
:10077000510001002C00010001002B004F0001007E
:100780000100010001000100010000000100010062
:100790000100000001000000010001000100000054
:1007A000010000000100010045004400430000007A
:1007B0000100010040003D003A004300010001003B
:1007C00041003E003B0044000100010042003F6147
:1007D0003C004500010001000100E20001000100B1
:1007E00001000100010001000100010000001050A3
:1007F00001003101010001000000430040003D64A0
:100800003A0001000100440041003E613B0001004C
:100810002800450042003F003C0001002D0201007D
:1008200001000100010001000100010001000100C0
:1008300001000000010001000100000001000000B3
:1008400001000100010000000100000001000100A2
:10085000310050004A000000010001003502510043
:100860004E002402010001002B0052002B04310233
:10087000010001002A004F004D00010001000100AD
:1008800046004C00310001000100005C0100340210
:1008900001000100000005010902A1018502090112
:1008A000A100050919012905150025019505750106
:1008B0008102950175038101050109300931158116
:1008C000257F95027508810609381581257F9501D8
:1008D00075088106050C0A38021581257F9501757A
:1008E000088106C0C005010980A101850316010029
:1008F0002603001A81002A8300751095018100C02B
:10090000050C0901A1018504160100269C021A01AB
:10091000002A9C02751095018100C005010906A1FD
:10092000018505050719E029E715002501950875DA
:1009300001810205081901290595057501910295A6
:1009400001750391010507190029EF15002501958F
:10095000F075018102C005010906A101050719E032
:1009600029E7150025019508750181029501750893
:100970008101050819012905950575019102950167
:10098000750391010507190029FF150026FF009541
:100990000675088100C009023B00020100A0FA09A7
:1009A000040000010301010009211101000122409E
:1009B000000705810308000A090401000103000083
:1009C0000009211101000122C00007058203200057
:1009D0000A1201100100000008EDFE0713010001DA
:1009E0000203010403300000001603450072006793
:1009F000006F0044006F007800200045005A00009E
:100A00000016034500720067006F0044006F007815
:100A100000200045005A00000004030904001124CE
:100A20001FBECFEFDAE0DEBFCDBF11E0A0E0B1E046
:100A3000E0E8FCE402C005900D92A03CB107D9F7B4
:100A400025E0A0ECB1E001C01D92A73FB207E1F79D
:100A50000E94A11D0C943E260C9400008F929F9240
:100A6000AF92BF92CF92DF92EF92FF920F931F93BC
:100A7000CF93DF93CDB7DEB728970FB6F894DEBFDC
:100A80000FBECDBFFC01F080118183819481892B41
:100A900009F4DDC61F3F21F40FEFF01609F4D7C6A5
:100AA0006F0185E0DE01119601900D928A95E1F7C4
:100AB000F601228189819A81222349F00E946716DA
:100AC000082F682F89819A810E94E01603C00E9436
:100AD000B316082F26E0129FF001112434E5039F7E
:100AE000E00DF11D1124EF0DF11DEE0FFF1FE25A75
:100AF000FE4F05911491093F8CE5180709F436C1A2
:100B00008091C20481117FC0F6018281811100C1F0
:100B10000B3FFCE51F07A1F1A0F40A3F3CE51307DA
:100B200009F0F6C00E942D2260E070E0CB010E9427
:100B3000101780EC91E09093C1048093C00481E091
:100B40002DC00D3F8CE5180761F10E3F9CE519079C
:100B500009F0DEC0A0900601B0900701C0906F05BB
:100B6000D0907005E0907105F09072050E942D22E2
:100B700060E070E0CB010E9410170AEB14E02FC078
:100B80000E942D2260E070E0CB010E9410178AEBDA
:100B900094E09093C1048093C00482E08093C204E7
:100BA00056C6A0900801B0900901C0906F05D09082
:100BB0007005E0907105F09072050E942D2260E0B2
:100BC00070E0CB010E94101700EC11E00A151B0524
:100BD00079F0C8010E942E050A5F1F4FF7CF0A1552
:100BE0001B0531F0C8010E942E0506501109F7CFF0
:100BF0000E942D22C0926F05D0927005E09271057F
:100C0000F092720524C60C3FECE51E0739F0C0F1E6
:100C10000F3F2CE5120708F41AC632C0F601928184
:100C2000992309F414C6813039F0823031F580916E
:100C3000C0049091C10419C0E091C004F091C104B6
:100C40009E2F8F2F01E0E03CF00721F036972281A4
:100C50002111F6CF90930801809309010EC0FC0189
:100C600036962281222329F0CF0114E08A3B910796
:100C7000B1F790930701809306011092C204E7C573
:100C8000F6019281813019F0823001F141C020914A
:100C9000060130910701A091C004B091C1049111E7
:100CA00004C0F1E0A03CBF0799F1CD0106972817D9
:100CB000390771F186E0F60101900D928A95E1F70E
:100CC0008091C0049091C10406961EC02091080135
:100CD00030910901A091C004B091C104911104C0E8
:100CE00084E0AA3BB807A1F0CD0106962817390782
:100CF00079F086E0F60101900D928A95E1F78091F6
:100D0000C0049091C10406979093C1048093C004DD
:100D1000F6018281882379F0033E9CE5190709F4E6
:100D20004FC008F042C0013EFCE51F07C1F510921C
:100D3000B2050E942B0E17FFB7C0F6018281811108
:100D400045C00531FCE51F0708F4FFC00C3D9CE5DC
:100D5000190709F421C508F427C50D3D2CE5120734
:100D600009F463C50E3D1C4509F067C1F601828197
:100D7000882309F46CC528960FB6F894DEBF0FBE21
:100D8000CDBFDF91CF911F910F91FF90EF90DF903A
:100D9000CF90BF90AF909F908F900C94BD15023E66
:100DA0002CE5120741F681E00EC0043E3CE5130736
:100DB00049F0053E8CE5180709F0BDCF84E003C07B
:100DC00082E001C083E08093B205B3CF80917605C5
:100DD0008093C304109276058091B205813071F042
:100DE00048F08230D1F08430F1F486EE0E94BE22C9
:100DF00088E117C082EE0E94D12215C08DE69CE0EA
:100E00000E94FA1788E10E94D12288E10E945722AD
:100E10008DE59CE00E94FA1706C082EE0E94D12266
:100E200087E50E94BE228FE39CE90197F1F700C09D
:100E300000007801E894F7F85CE0A52EB12CC7011A
:100E40000A2C02C0969587950A94E2F7282F2F70F6
:100E500041F0822F90E02A3010F44D9604C006979E
:100E600002C087E290E00E94BE2294E0A91AB10875
:100E7000ECEFAE16EFEFBE0611F78091B2058130B0
:100E800039F040F0823031F0843051F488E206C00D
:100E90008CE204C082EE0E94572202C00E94BE2251
:100EA0008091C30480937605003FFCE51F07B1F1F4
:100EB00080F4083D3CE51307C9F0093D8CE51807AF
:100EC000C9F1073D9CE51907C1F526E241EE61EE47
:100ED00010C0023FECE51E0749F120F1033F2CE56D
:100EE000120759F527E245EE66EE03C027E245EE0C
:100EF00065EEC60128960FB6F894DEBF0FBECDBFD3
:100F0000DF91CF911F910F91FF90EF90DF90CF90E5
:100F1000BF90AF909F908F900C94731126E241EE9A
:100F200060EEE7CF27E245EE64EEE3CF26E241EE46
:100F300062EEDFCF28E241E0DBCFF6018281882339
:100F400009F48AC01092C404FCCE02302CE51207CA
:100F500008F46AC0F6018281882309F46EC080E03B
:100F600090E00E94A9248D3E9E4F11F00E94BD1575
:100F700084E090E00E94A12490E09093C5058093C6
:100F8000C405F801E350FC45E231F10530F4EA5ABA
:100F9000FF4F8091C4050C940B258091C40581609E
:100FA00027C0826025C0846023C0806121C0806228
:100FB0001FC080641DC080681BC08460886018C02A
:100FC0008E7F16C08D7F14C08B7F12C08F7E10C0A5
:100FD0008F7D0EC08F7B0CC08F770AC08B7F877F81
:100FE00007C087FB222720F991E0922790FB87F921
:100FF0008093C4056091C40584E090E00E94AF2412
:1010000028960FB6F894DEBF0FBECDBFDF91CF910B
:101010001F910F91FF90EF90DF90CF90BF90AF9016
:101020009F908F900C942D2201153CE5130709F435
:1010300061C301301C4509F49FC3F6018281008120
:1010400011818823F9F0C8010E946716F82E682FD5
:10105000C8010E94E0161AC00531FCE51F0708F020
:1010600096C302302CE5120708F074CF01153CE559
:10107000130709F43FC301301C4509F47DC3F60191
:1010800000811181C8010E94B316F82EB8018F2D7E
:101090000E94310E182F382FF601258122952F70CE
:1010A0000281011110927505809173058770A9F076
:1010B000002399F080E2810F883078F082E02F835E
:1010C00038879E830E94AC17809173058770EE2449
:1010D000E3942F8138859E818111E12CA92EA29461
:1010E0004FE0A422B12CFCE0AF16B10408F0CAC254
:1010F000F501E859FF4F0C940B25892F807F9F70D5
:10110000F92E882319F0F29480EFF8220023B9F029
:10111000FF2009F448C280E2810F883010F03111BD
:1011200006C090917605F92AF092760505C0909157
:101130007505F92AF09275050E94211634C2812F97
:1011400038870E9457223885FF2009F49BC2105E21
:10115000F094183010F0311106C090917605F92204
:10116000F092760505C090917505F922F09275050B
:101170000E94211687C2492F407F892F8F704032ED
:1011800011F08295807F332319F03130E9F025C0CA
:10119000002381F030917705222351F0213041F472
:1011A000982F932B391709F46DC2909377056AC273
:1011B000832B81C1222319F0213009F463C28E836D
:1011C0000E941B168E817DC1002321F0223008F081
:1011D00059C271C1211156C274C1002321F02223CA
:1011E00009F469C1E0C1222309F46BC1EEC1292FC2
:1011F00026952695237030E02115310521F0213008
:10120000310559F03FC2002319F0812F937002C0BD
:1012100080E090E00E94090E43C2002319F0812F64
:10122000937002C080E090E00E94F30D39C2002369
:10123000F9F0153F51F0163F71F0143FA9F4809179
:10124000C6049091C70481600BC08091C604909140
:10125000C704826005C08091C6049091C704846071
:101260009093C7048093C604812F0E9457141EC018
:10127000153F51F0163F71F0143FA9F48091C60458
:101280009091C7048E7F0BC08091C6049091C704D3
:101290008D7F05C08091C6049091C7048B7F909389
:1012A000C7048093C604812F0E9492130E941B15CD
:1012B000F7C1892F837009F071C00111EFC1812F2F
:1012C000829586958770880F880F412F4F7050E068
:1012D00060E070E04A015B01082E04C0880C991C94
:1012E000AA1CBB1C0A94D2F714FF12C00FE010E036
:1012F00020E030E004C0000F111F221F331F8A9529
:10130000D2F7B901A801409550956095709503C03A
:1013100040E050E0BA01969596959370892F90E041
:1013200082309105E9F08330910579F100917805DB
:101330001091790520917A0530917B05019759F03C
:10134000482959296A297B29CB01BA0160237123D5
:101350008223932320C0802A912AA22AB32A15C06F
:10136000482959296A297B29809178059091790526
:10137000A0917A05B0917B058A019B010827192766
:101380002A273B27C901B80106C0CB01BA01682949
:1013900079298A299B290E94E61780C1002319F028
:1013A000892F817001C08695882309F477C1812F28
:1013B000829586958770880F880F412F4F7050E077
:1013C00060E070E04A015B01082E04C0880C991CA3
:1013D000AA1CBB1C0A94D2F714FF12C00FE010E045
:1013E00020E030E004C0000F111F221F331F8A9538
:1013F000D2F7B901A801409550956095709503C04A
:1014000040E050E0BA01969596959370892F90E050
:1014100082309105E9F08330910579F100916F05F3
:10142000109170052091710530917205019759F066
:10143000482959296A297B29CB01BA0160237123E4
:101440008223932320C0802A912AA22AB32A15C07E
:10145000482959296A297B2980916F059091700547
:10146000A0917105B09172058A019B010827192787
:101470002A273B27C901B80106C0CB01BA01682958
:1014800079298A299B290E94101708C1412F50E011
:10149000FA01E05EF109E531F10508F07FC0EC5892
:1014A000FF4F0C940B251F70892F8F71002331F093
:1014B0000E94C517812F0E944D22E4C00E94871709
:1014C000812F0E944222DEC0002311F12111DAC0D7
:1014D000292F2F7181E090E0A0E0B0E0AC01BD01C8
:1014E00004C0440F551F661F771F2A95D2F78091BD
:1014F0006F0590917005A0917105B09172058A01F8
:101500009B01082719272A273B27C901B80125C0B5
:10151000223008F0B7C0DCCF002329F0892F8F716B
:101520002EC00023D9F3892F8F710E948717AAC07C
:10153000002381F0292F2F7181E090E0A0E0B0E03E
:10154000BC01CD0104C0660F771F881F991F2A9523
:10155000D2F703C060E070E0CB010E94101792C088
:10156000002381F0192F1F71812F0E94C51728E0D9
:10157000129FC0011124836080937305812F0E9404
:10158000C51780C081E02F830E94AC172F812230C5
:1015900008F478C082E00E94AC1774C0002339F0D0
:1015A000222309F4BBCF812F0E94D1226BC02223BA
:1015B00009F4B9CF193349F43FEF87EE93E0315086
:1015C00080409040E1F700C00000812F0E94572228
:1015D00059C0323FB1F028F4303F49F0313FF9F0C3
:1015E00028C0343FB9F058F0353F71F022C00023D5
:1015F00009F456C09091F20581E0892708C081E086
:1016000008270093F2054CC001114AC081E0809385
:10161000F20546C0011144C01092F20541C00023FA
:1016200029F08091F105882329F329C0222311F3A1
:1016300037C08091F1052223C1F0882341F09091B9
:10164000F20581E089278093F2051092F105812F40
:10165000002319F00E94D12223C00E94572286E065
:10166000F60111928A95E9F71BC08823C9F0011190
:1016700017C09091F20581E089278093F2051092BE
:10168000F1050EC0F8E0AF16B10441F04CF01AE0DD
:10169000A11AB10822E0A216B10410F40E941F0E94
:1016A000EE2009F4D4C08091730580FDD0C0F6010E
:1016B00012828595859585950E94C517C6010E9461
:1016C0002E058091730585958595859528960FB68D
:1016D000F894DEBF0FBECDBFDF91CF911F910F9168
:1016E000FF90EF90DF90CF90BF90AF909F908F9042
:1016F0000C948717F6018281882309F4A8C00E9400
:101700002D22FFEF04E31CE0F15000401040E1F710
:1017100000C00000F89481E08093E00080E28093B4
:10172000D8001092C9008FE19EE40197F1F700C044
:1017300000001DBA109268001CBC10BE1FBA1092A7
:101740007A0010926E0010926F0010927100109249
:1017500072001092C9001092BC0014B817B81AB8E1
:101760001DB810BA1092BC0015B818B81BB81EB836
:1017700011BA0C94003F6BC0F6018281882309F4F2
:1017800066C08091E10581608093E10560C00C3DF9
:101790009CE5190709F041C0F6018281882309F40C
:1017A00056C01092F00553C006311C4509F045CCD7
:1017B00090917605F6018281882381F09A7A81E002
:1017C00009F480E08093C504811102C069E201C080
:1017D00065E380EE94E00E9485150BC08091C504FE
:1017E000811102C069E201C065E380EE94E00E94CD
:1017F0005A1528960FB6F894DEBF0FBECDBFDF9105
:10180000CF911F910F91FF90EF90DF90CF90BF90FD
:10181000AF909F908F900C9421160D3DECE51E0724
:1018200060F00D3D2CE5120769F4F60182818823F2
:1018300071F082E08093F0050AC006311C4509F47E
:10184000B7CF1DCC0E3D1C4509F490CA18CC289684
:101850000FB6F894DEBF0FBECDBFDF91CF911F91C1
:101860000F91FF90EF90DF90CF90BF90AF909F903F
:101870008F9008959091C40592FF0DC0282F287174
:10188000283019F4877F846006C0282F2471243003
:1018900011F48B7F886093FF0DC0282F28712831A9
:1018A00019F4877E846106C0282F2471243111F435
:1018B0008B7E886194FD877E0895282F277081E0B4
:1018C00090E001C0880F2A95EAF780959091750500
:1018D0008923809375050C942116282F277081E0A9
:1018E00090E001C0880F2A95EAF790917505892B41
:1018F000809375050C942116CF93E82F873080F5DF
:1019000080910B0190910C01892B09F047C0CE2FDB
:1019100064E670E080E40E94F12390930C018093D0
:101920000B01892BD1F464E670E082E10E94482427
:1019300090930C0180930B01892B79F481E090E066
:1019400001C0880FCA95EAF764E670E080950E94AE
:10195000482490930C0180930B01CF910C949D240B
:1019600090E0FC013797E730F105C0F4E757FF4FEF
:101970000C940B25209A289811C0219A29980EC002
:10198000229A2A980BC0239A2B9808C0529A5A98E8
:1019900005C0539A5B9802C03E9A4698CF9108952D
:1019A000CF93873008F03FC080910B0190910C01DC
:1019B000892B09F041C064E670E080E40E94F123C5
:1019C00090930C0180930B01892B11F0C0E027C08C
:1019D00064E670E083E10E94482490930C018093B8
:1019E0000B01892B99F764E670E081E40E94F123F2
:1019F00090930C0180930B01892B41F784E690E0D2
:101A00000E94782497FF05C090930C0180930B01EE
:101A1000DDCFC82FC09510920C0110920B010E94CF
:101A20009D248C2F0AC09FB18FB1807F86958695AB
:101A30009370892B809501C080E0CF910895EF923B
:101A4000FF920F931F93CF93DF93CDB7DEB76797C6
:101A50000FB6F894DEBF0FBECDBF4B8B5C8B6D8B8A
:101A60007E8B8F8B0E891F8901151105C1F15F3F98
:101A700011F44F3FA1F1E42EF12CA1E0B0E0042ECF
:101A800001C0AA0F0A94EAF7852F90E0662319F0A7
:101A90002091F20506C09C012E523B4FF901208196
:101AA0002A232223A9F046E0489F9001499F300D48
:101AB0001124F701E20FF31FEE0FFF1FE95EFE4F47
:101AC00040815181FC01EE52FB4F9081A92B06C051
:101AD000FC01EE52FB4FA0958081A823A08386E0F5
:101AE000FE013D96DF01982F1D929A95E9F74D87EB
:101AF0005E876F87198B088BDE01179601900D9218
:101B00008A95E1F7CE0107960E944820811137C0DF
:101B100086E0FE013796DE01119601900D928A95BE
:101B2000E1F7FF81E8856A857B856115710539F1EB
:101B3000EF3F11F4FF3F19F12091060530E0C90194
:101B40000196877099274091370550E084179507D3
:101B500079F1F983EA837D836C8396E0929FD001CB
:101B6000939FB00D1124A95FBA4FFE0131960190E9
:101B70000D929A95E1F7809306050E94F01716E002
:101B80008091370590910605891701F1189FC001D2
:101B90001124895F9A4F0E9448208823B9F08091D0
:101BA000370590E001968770992780933705E8CF35
:101BB0000E942D221092060510923705E0E0F5E014
:101BC00086E0DF011D928A95E9F7D9CF67960FB6B7
:101BD000F894DEBF0FBECDBFDF91CF911F910F9163
:101BE000FF90EF9008952091D0043091D104821796
:101BF000930771F09093D1048093D004E091C605CF
:101C0000F091C705309721F00084F185E02D09940B
:101C100008952091CE043091CF048217930771F07C
:101C20009093CF048093CE04E091C605F091C70550
:101C3000309721F00680F781E02D09940895E09116
:101C4000C605F091C705309721F00190F081E02D95
:101C5000099480E008956091B2058CE090E00C94C6
:101C6000AF24CF93DF9326E0729FF001112434E577
:101C7000839FE00DF11D1124E60FF11DEE0FFF1FF4
:101C8000E25AFE4FC591D491CE01C238D10549F137
:101C9000B0F4C133D10509F464C048F4C932D105A8
:101CA00009F458C0CA32D10509F462C068C0C5330E
:101CB000D10509F448C0C933D10599F060C0C33ECD
:101CC000D10541F138F4C03ED10591F0C23ED105B5
:101CD000B1F055C0C63ED10521F1C73ED10561F135
:101CE0004EC02091C40520FD14C221FD12C213C2B2
:101CF0002091C40520FF0FC289E390E00CC220911F
:101D0000C40522FF08C28091C40584FDB4C183EEDE
:101D100090E001C28091C40582FFF5CF82EE90E091
:101D2000FAC12091C40523FFF6C18091C40584FD4A
:101D3000A2C187EE90E0EFC18091C40583FFF5CF8B
:101D400086EE90E0E8C12091C40525FFE4C189E258
:101D500090E0E1C12091C40525FFDDC185E390E05D
:101D6000DAC12091C40526FFD6C18AE290E0D3C132
:101D70002091C40526FFCFC181E390E0CCC1C115FD
:101D800020E5D20708F047C0C11530E4D30708F0BA
:101D900034C1C83ED10518F5C03ED10508F0BBC11D
:101DA000C83AD10570F4C53AD10508F0B0C0C130C9
:101DB000D10509F4B0C108F45EC1249708F45BC1F1
:101DC000AAC1CF3BD10508F4ADC0C03CD10508F491
:101DD00052C1FE01EE0FFF1FEA5EF84F02C1C115AE
:101DE00020E2D20760F4C11531E0D30708F093C1B7
:101DF000C03FD10508F43FC1CE0190658CC1C1152B
:101E000080E3D80708F0F0C0FE01FF70EE0FFF1F5F
:101E1000EA56F74FE6C0C11595E5D90708F044C06A
:101E2000C11524E5D20708F000C1C11532E5D3077A
:101E300010F5C11581E5D80708F0E3C02C2F2370F9
:101E400081E090E002C0880F991F2A95E2F79C6814
:101E50009E0174E0369527957A95E1F72370922BD1
:101E6000EC2FEF70E695E69530E2E39FF001112448
:101E70008E2B9F2B50C18C2F86958695AE0143707B
:101E80005527C115D34508F0C1C090E2899F900144
:101E9000112481E090E002C0880F991F4A95E2F773
:101EA000822B932B9C6837C1C1152AE5D207A0F479
:101EB000C11539E5D30708F0C6C0C11586E5D807B6
:101EC00008F4B8C0C11598E5D90708F4D4C09C2F10
:101ED0008827806F906A1FC1C1152BE5D20708F4CF
:101EE000CAC0CE01C1153CE5D30708F4C1C0905665
:101EF0008115904208F0BFC08D2F8F710E943A0C5F
:101F0000FE01FF27F0628F719F01382BAFC0C53AE9
:101F1000D10509F4B3C0C63AD10509F0B2C082E8D0
:101F200090E4F9C0C83AD10509F4AEC0C93AD10568
:101F300009F4ADC0CA3AD10509F4ACC0CB3AD10519
:101F400009F4ABC0CC3AD10509F4AAC0CB3BD1050A
:101F500009F4A9C0CC3BD10509F4A8C0CD3AD105FC
:101F600009F4A7C0C03BD10509F4A6C0CE3AD105FB
:101F700009F4A5C0CF3AD10509F4A4C0C13BD105ED
:101F800009F4A3C0C23BD10509F4A2C0C33BD105EB
:101F900009F4A1C0C43BD10509F4A0C0C53BD105DB
:101FA00009F49FC0C63BD10509F49EC0C73BD105CB
:101FB00009F49DC0C83BD10509F49CC0C93BD105BB
:101FC00009F49BC0CD3BD10509F49AC0CE3BD105A5
:101FD00009F499C0CA3BD10509F498C080E094E4A3
:101FE0009AC08591949197C09E013327C901D3FF70
:101FF00002C0986C90C0906C8EC0CE019F70906AA9
:102000008AC09C2F8827816F906A85C090E2899F43
:102010009001112481E090E002C0880F991F4A9539
:10202000E2F7822B932B9A6876C09C2F8827846FC7
:10203000906A71C08C2F0E943A0C8F7190E0982F9B
:102040008827906268C08C2F8F700E943A0CFE0126
:1020500094E0F695E7959A95E1F7EF70F0E0FE2FA2
:10206000EE27F06A8F70806E9F01282BC90153C044
:102070009927906650C080E090E04DC081E890E4E0
:102080004AC083E890E447C082EE94E444C089EEFD
:1020900094E441C08AEE94E43EC085EB94E43BC0F6
:1020A00086EB94E438C083EB94E435C084EB94E48D
:1020B00032C087EB94E42FC08CEC94E42CC08DEC00
:1020C00094E429C083E895E426C08AE895E423C017
:1020D00082E995E420C084E995E41DC081E296E49C
:1020E0001AC083E296E417C084E296E414C085E245
:1020F00096E411C086E296E40EC087E296E40BC037
:102100008FE694E408C080E794E405C08AE296E490
:1021100002C080EE90E0DF91CF91089580E290E0E0
:1021200090930C0180930B018091CB0481110EC020
:102130000E94EB2381E08093CB042FEF83ED90E3AB
:10214000215080409040E1F700C0000064E670E05C
:1021500080E40E94F12390930C0180930B01892B62
:1021600009F04EC064E670E080E00E94482490933D
:102170000C0180930B01892B09F042C064E670E0EA
:1021800080E00E94482490930C0180930B01892BDE
:10219000B9F564E670E08FE30E94482490930C0147
:1021A00080930B01892B61F50E949D2464E670E009
:1021B00080E40E94F12390930C0180930B01892B02
:1021C000F9F464E670E08CE00E94482490930C01DE
:1021D00080930B01892BA1F464E670E080E00E94FB
:1021E000482490930C0180930B01892B49F464E6F9
:1021F00070E08FE30E94482490930C0180930B01C0
:102200000E949D2480910B01089556985E98259810
:102210002D9826982E9827982F988FEF90E09093DE
:1022200089008093880090938B0080938A0090931C
:102230008D0080938C00259A2D9A2FEF80E792E0F5
:10224000215080409040E1F700C00000269A2E9A6D
:102250002FEF80E792E0215080409040E1F700C0EE
:102260000000279A2F9A2FEF80E792E021508040BC
:102270009040E1F700C0000025982D982FEF80E7EF
:1022800092E0215080409040E1F700C00000269885
:102290002E982FEF80E792E0215080409040E1F7A8
:1022A00000C0000027982F9856985E9825982D9882
:1022B00026982E9827982F98089584B1807F84B906
:1022C00085B1807F85B98AB1837F8AB98BB1837FDD
:1022D0008BB93E984698089580B38C7080BB81B3CB
:1022E000836F81BB08950F931F93CF93DF93C62F06
:1022F000D42F022FFC0182818823C9F06093C4048B
:102300000E940F159093CD048093CC0480E28C0F33
:10231000883008F050C0C77081E001C0880FCA95AE
:10232000EAF7DF91CF911F910F910C944D221091FC
:10233000C404161330C08091CC049091CD040E9447
:10234000E514883C910538F5C0E2CD0F1D17B9F0B2
:1023500080E2810F883040F4177081E001C0880F5F
:102360001A95EAF70E944222C83048F481E09D2F76
:10237000977001C0880F9A95EAF70E944D22802F2E
:102380000E94BE22C830B8F4D77081E001C0880F27
:10239000DA95EAF70AC080E28C0F883060F4C770E3
:1023A00081E001C0880FCA95EAF7DF91CF911F91B4
:1023B0000F910C944222DF91CF911F910F910895BC
:1023C0009F92AF92BF92CF92DF92EF92FF920F93C4
:1023D0001F93CF93DF9380910B0190910C01892B78
:1023E00091F08091CA048F5F8093CA0481110BC061
:1023F0000E948E1090E090930C0180930B01892B2A
:1024000011F40E94051106EB15E02DEBE22E25E0FC
:10241000F22E6801C0E0912C97E0A92EAC0E8C2F13
:102420000E947C0C8A2D0E947C0C8C2F0E94D00C68
:10243000F6019081981721F08083BB24B39401C0EA
:10244000B12C8A2D0E94D00CF7019081981719F0B9
:10245000808381E001C080E0B82A9B280E945D1142
:10246000CF5FFFEFCF1ADF0A8FEFE81AF80AC73005
:1024700099F60E940F156AEF70E00E94E3249C0118
:10248000682F8091C9048823E9F11092C904E09172
:10249000B005F091B105DF011E9690E07BEF8AEF69
:1024A000E82EF12C80818B3FA9F0482F50E068176F
:1024B00028F0E901C41BD50BAE0106C06701C41AA0
:1024C000D50AA601420F531F4931510514F07083FC
:1024D00001C091E03196EA17FB0721F79093C904F8
:1024E000911002C0911110C01092C804A091B005C3
:1024F000B091B1059091C904E9ECF5E080E03EE0CF
:102500003E0F07C09110F0CF8091C8048111ECCF2D
:1025100016C0E80129918E014081421741F04C918B
:102520004B3F21F46C93208391E001C081E0119630
:1025300031963E13EECF9093C9048093C804892D41
:10254000DF91CF911F910F91FF90EF90DF90CF908F
:10255000BF90AF909F900895809183050895CF9389
:10256000DF9300D01F92CDB7DEB72091A6052430AF
:1025700031F523E02983805891099B838A8382E087
:102580008093E9008FEF9091E800815095FD06C09F
:1025900095ED9A95F1F700008111F5CF8091E80053
:1025A00085FF0DC040E050E063E070E0CE01019691
:1025B0000E9405188091E8008E778093E8000F90C4
:1025C0000F900F90DF91CF9108950F931F93CF93AA
:1025D000DF9300D01F92CDB7DEB78C010E94951D0E
:1025E000823011F0843021F584E089831B830A83D3
:1025F00082E08093E9008FEF9091E800815095FD93
:1026000006C095ED9A95F1F700008111F5CF809104
:10261000E80085FF0DC040E050E063E070E0CE01CF
:1026200001960E9405188091E8008E778093E8005B
:102630000F900F900F90DF91CF911F910F91089500
:10264000CF93DF93EC010E94951D823011F084300E
:10265000F9F482E08093E9009FEF8091E8009150C7
:1026600085FD06C085ED8A95F1F700009111F5CF43
:102670008091E80085FF0CC040E050E066E070E02B
:10268000CE010E9405188091E8008E778093E800C3
:10269000DF91CF910895CF93DF93EC010E94951DB8
:1026A000823011F08430D9F580910A01882339F005
:1026B0008091C40587FF03C060E282E002C068E049
:1026C00081E08093E9008FEF9091E800815095FDC3
:1026D00006C095ED9A95F1F700008111F5CF809134
:1026E000E80085FF1CC080910A01811105C040E00F
:1026F00050E068E070E003C070E040E050E0CE01E0
:102700000E9405188091E8008E778093E80080E2AF
:10271000FE01A4E8B5E001900D928A95E1F7DF9102
:10272000CF910895803F39F48091DA0587FF6CC01E
:102730001092DA0569C0813F29F48091DA051816F4
:10274000BCF362C09091D905823F29F497FF5CC029
:102750001092D90559C0833F19F41916CCF354C00F
:10276000893F41F48091DB0518160CF04DC01092A2
:10277000DB054AC08A3F29F48091DB0587FF44C00E
:10278000F6CF8B3F39F48091DC0587FF3DC0109276
:10279000DC053AC08C3F29F48091DC051816BCF3A7
:1027A00033C0843F21F48091D8058E7F17C0853FC8
:1027B00021F48091D8058D7F11C0863F21F480914E
:1027C000D8058B7F0BC0873F21F48091D805877F88
:1027D00005C0883F31F48091D8058F7E8093D8055D
:1027E00013C08D3F21F4809180058E7F0BC08E3FFA
:1027F00021F4809180058D7F05C08F3F29F4809161
:1028000080058B7F809380058091D90581110EC052
:102810008091DA0581110AC08091DB05811106C023
:102820008091DC05811102C01092DD050895809130
:10283000800580FD18C081FD14C082FD16C0809106
:10284000DD05882381F0883280F426E0829FC00174
:10285000112468E270E00E94F724862F672B19F09C
:1028600005C083E0089581E0089586E00895809191
:10287000800580FD14C081FD14C082FD16C08091CA
:10288000DD05882381F08E3180F423E2829FC00130
:1028900011246EE170E00E94F724862F089588E0ED
:1028A000089581E1089585E0089583E20895803FC9
:1028B00021F40E943714819504C0813F29F40E94BD
:1028C00037148093DA050895823F21F40E9437146B
:1028D000819504C0833F29F40E9437148093D90561
:1028E0000895893F19F40E94171405C08A3F31F4F6
:1028F0000E94171481958093DB0508958B3F21F486
:102900000E941714819504C08C3F29F40E9417146B
:102910008093DC050895843F21F48091D80581607F
:1029200017C0853F21F48091D805826011C0863F91
:1029300021F48091D80584600BC0873F21F48091F9
:10294000D805886005C0883F31F48091D805806142
:102950008093D80508958D3F21F480918005816092
:102960000BC08E3F21F480918005826005C08F3FAF
:1029700029F480918005846080938005089578947F
:102980001F920F920FB60F9211248F939F93AF93C4
:10299000BF9380917C0590917D05A0917E05B091BB
:1029A0007F050196A11DB11D80937C0590937D0547
:1029B000A0937E05B0937F05BF91AF919F918F91BA
:1029C0000F900FBE0F901F901895CF92DF92EF924D
:1029D000FF920F931F932FB7F89440917C0550916D
:1029E0007D0560917E0570917F052FBF6A017B0197
:1029F000EE24FF248C0120E030E0C016D106E20670
:102A0000F30610F4415051099A01281B390BC901F2
:102A10001F910F91FF90EF90DF90CF9008952FB707
:102A2000F89480917C0590917D05A0917E05B091F0
:102A30007F052FBF0895E091C605F091C705309737
:102A400049F082E08093D7050480F581E02D87ED81
:102A500095E009950E940F159093DF058093DE05A0
:102A600008951F920F920FB60F9211248F939F9388
:102A7000AF93BF938091C805811113C080917C05ED
:102A800090917D05A0917E05B0917F054196A11D95
:102A9000B11D80937C0590937D05A0937E05B09336
:102AA0007F05BF91AF919F918F910F900FBE0F90B7
:102AB0001F90189520910A01222321F02091C4052E
:102AC00027FD04C0FC013296089619C0262F2695D2
:102AD000269526952E31C0F4FC01E20FF11D67709A
:102AE00081E090E001C0880F6A95EAF780959281B5
:102AF0008923828308953196E817F90729F0208108
:102B00002613F9CF1082F7CF089520910A012223CE
:102B100021F02091C40527FD05C0FC0132962FEF5E
:102B200030E019C0262F2695269526952E3120F5C2
:102B3000FC01E20FF11D677081E090E001C0880F99
:102B40006A95EAF79281892B828308952F3F39F0A5
:102B50003F5F363041F041914613F8CF0DC041112F
:102B6000F7CF232FF5CF2F3F39F0FC01E20FF11DF6
:102B700027FDFA956283089508956DEE7EEF80E05B
:102B800090E00E94CD2460E082E090E00E94AF24BB
:102B900060E083E090E00E94AF24109278051092EC
:102BA000790510927A0510927B0560E084E090E050
:102BB0000E94AF2460E085E090E00E94AF2460E0D6
:102BC00086E090E00E94AF246FEF87E090E00E94E3
:102BD000AF2440E050E0BA0188E090E00E94C124B8
:102BE00060E08DE090E00E94AF2440E050E0BA0148
:102BF00088E190E00E94C12460E087E190E00E94BB
:102C0000AF2440E050E0BA018CE190E00E94C12482
:102C100060E080E290E00E94AF2440E050E0BA0122
:102C20008FE090E00E94C12440E050E0BA0183E1CF
:102C300090E00C94C1248091770581111092770562
:102C400008959091750580917605892B20917405E2
:102C5000982F922B9093E004809177058823D9F0E8
:102C6000892B8093E00480910A01882331F08091C0
:102C7000C40587FF02C08EE101C086E0E2EEF4E009
:102C800090E0815028F021912223D9F39F5FF9CF62
:102C900091110E941B16E091C605F091C70530976F
:102CA000A9F080910A01882359F08091C40587FF1B
:102CB00007C08091E0048093E10485E08093E00404
:102CC0000280F381E02D80EE94E009940895BF9294
:102CD000CF92DF92EF92FF920F931F93CF93DF93E8
:102CE0008C01C0907805D0907905E0907A05F0903D
:102CF0007B0580916F0590917005A0917105B09151
:102D00007205C82AD92AEA2AFB2ACFE1D0E0D701E6
:102D1000C6010C2E04C0B695A795979587950A9481
:102D2000D2F780FF07C0BC2EB8018C2F0E94310E55
:102D3000019719F4219758F7B12C8B2DDF91CF9182
:102D40001F910F91FF90EF90DF90CF90BF9008956B
:102D5000CF93DF93EC010E946716BE010E94310EF3
:102D6000DF91CF910895292F220F920F990F890F8C
:102D7000682F669566956695982F977085E0689F91
:102D8000B001112440E050E080E0FA01E60FF71FA7
:102D9000E85CFA4F208130E0092E02C03695279575
:102DA0000A94E2F721703327042E01C0220F0A94FF
:102DB000EAF7822B4F5F5F4F4530510531F7089599
:102DC000292F220F920F990F890FA82FA695A6954C
:102DD000A695877051E001C0550F8A95EAF785E006
:102DE000A89FD001112420E030E070E0F901EA0F43
:102DF000FB1FE85CFA4F4081CB01022E02C0969582
:102E000087950A94E2F78170992781958427852315
:102E1000842780832F5F3F4F2530310539F7089590
:102E20000F931F93AB01BC01CB01AA27BB270097CF
:102E3000A105B10511F0E0E103C0DB01CA01E0E04A
:102E4000092F1A2F2B2F33270115110521053105C5
:102E500019F0E85FD901C8018C019D01F4E03695B5
:102E6000279517950795FA95D1F7011511052105B5
:102E7000310519F0EC5FD901C8018C019D01F2E028
:102E80003695279517950795FA95D1F701151105F0
:102E90002105310519F0EE5FD901C801B695A79556
:102EA00097958795892B8A2B8B2B09F0EF5F569886
:102EB0005E9825982D9826982E9827982F988E2FD3
:102EC00090E0FC013197E730F105A8F4E057FF4F9F
:102ED0000C940B25259A2D9A0EC0259A2D9A269A88
:102EE0002E9A09C0259A2D9A04C0259A2D9A269AC1
:102EF0002E9A279A2F9A40936F05509370056093EE
:102F00007105709372051F910F910C9412220F930B
:102F10001F9341E050E060E070E004C0440F551F93
:102F2000661F771F8A95D2F74095509560957095EA
:102F300080916F0590917005A0917105B091720517
:102F40008A019B01082319232A233B23C901B801C5
:102F50001F910F910C941017209173058095822377
:102F600080937305982F977079F430E0482F082EDE
:102F7000000C550B2417350739F0859585958595F7
:102F80000E9487171092730508950F931F9341E0D5
:102F900050E060E070E004C0440F551F661F771FCB
:102FA0008A95D2F780916F0590917005A091710577
:102FB000B09172058A019B01082B192B2A2B3B2B00
:102FC000C901B8011F910F910C94101760937805F7
:102FD0007093790580937A0590937B050C94122267
:102FE0008091370590910605891719F08F5F8770DA
:102FF000FBCF0895CF93DF93EC0180EEFE0109959E
:1030000081EEFE01DF91CF910994CF92DF92FF9282
:103010000F931F93CF93DF931F92CDB7DEB7F82E98
:103020008B0199830E94AC1C998181111CC0CF2C0B
:10303000D92E01151105B1F08091E80085FD0AC077
:103040008091E8008E778093E8000E94AC1C882372
:1030500081F309C0F60181916F018093F100015065
:103060001109E7CF80E00F90DF91CF911F910F9171
:10307000FF90DF90CF9008951F93CF93DF93CDB74C
:10308000DEB7AA970FB6F894DEBF0FBECDBFE8EA51
:10309000F5E088E08E0F9091F10091938E13FBCFB5
:1030A0008091A905833009F460C030F4813071F05B
:1030B000823009F49AC0B1C08A3009F486C08B30DE
:1030C00009F46BC0893009F0A8C020C08091A80520
:1030D000813A09F0A2C08091E800877F8093E800E0
:1030E0008091AC059091AD05892B21F460E284E8D4
:1030F00095E003C060E080E090E070E00E94321D47
:103100008091E8008B778093E80087C08091A805C4
:10311000813209F082C08091AC059091AD05029793
:1031200008F07BC08091E800877F8093E800809161
:10313000E80082FD05C08091A6058111F8CF6DC021
:103140002091F3008091F20090E0922B029729F4F5
:103150008091F1008B7F813021F48091F100809388
:1031600083058091E8008B7754C08091A805813A4F
:1031700009F053C08091AC059091AD05892B09F001
:103180004CC08091E800877F8093E8008091E80040
:1031900080FFFCCF80910A0137C08091A805813261
:1031A000E1F58091AC059091AD05892BB1F5809149
:1031B000E800877F8093E8000E94DE1C8091AA05CA
:1031C00080930A010E942D2228C08091A805813297
:1031D00021F58091E800877F8093E8000E94DE1C43
:1031E0008091AB058093820518C08091A805813A33
:1031F000A1F48091E800877F8093E8008091E80047
:1032000080FFFCCF809182058093F1008091E800DF
:103210008E778093E8000E94DE1C8091E80083FF97
:10322000D6C18091A8059091A905492F50E04A3058
:10323000510508F0CCC1FA01E956FF4F0C940B255B
:10324000803821F0823809F0C2C108C08091A405FD
:103250009091A505992389F082600FC08091AC05FB
:103260008F70873008F0B3C18093E9008091EB0044
:1032700085FB882780F91092E9009091E800977FFC
:103280009093E8008093F1001092F10074C1282F10
:103290002D7F09F09CC1882319F0823061F097C11D
:1032A0008091AA05813009F092C1933009F080E045
:1032B0008093A5052EC08091AA0581112AC0809116
:1032C000AC058F702FEF280F263008F080C1809357
:1032D000E9002091EB0020FF1CC0933021F4809185
:1032E000EB00806214C09091EB0090619093EB0032
:1032F00021E030E0A90102C0440F551F8A95E2F792
:103300004093EA001092EA008091EB00886080937D
:10331000EB001092E9008091E800877F2FC18111B6
:1033200056C11091AA051F778091E3008078812B08
:103330008093E3008091E800877F8093E8000E94FB
:10334000DE1C8091E80080FFFCCF8091E300806864
:103350008093E300111102C082E001C083E08093FA
:10336000A60535C18058823008F031C18091AA0588
:103370009091AB058C3D53E0950779F583E08A8306
:103380008AE289834FB7F894DE01139620E03EE08D
:1033900051E2E32FF0E050935700E49120FF03C087
:1033A000E295EF703F5FEF708E2F90E0EA3010F003
:1033B000C79601C0C0968D939D932F5F243149F726
:1033C0004FBF8091E800877F8093E8006AE270E059
:1033D000CE0101960E94321DBDC04091AC055091B6
:1033E000AD05292F332723303105B9F06CF4213096
:1033F000310509F4FBC02230310509F0E8C08BE348
:1034000090E0E6E9F9E054C02132310509F433C017
:103410002232310509F43CC0DAC099278130910588
:10342000D1F05CF4892B09F0D2C0E9E1FAE0E49133
:103430008E2F90E0E9E1FAE038C08230910599F0F2
:10344000039709F0C4C0E3EEF9E0E4918E2F90E019
:10345000E3EEF9E02AC0E1E0FAE0E4918E2F90E09B
:10346000E1E0FAE022C0E9EEF9E0E4918E2F90E08D
:10347000E9EEF9E01AC04115510509F4BCC041302C
:10348000510509F0A4C089E090E0E1ECF9E010C03A
:103490004115510509F4B4C04130510509F097C0F8
:1034A00080EC90E0E6E9F8E003C0009709F48FC0F3
:1034B0002091E800277F2093E8002091AE0530910D
:1034C000AF052817390708F4C90140E0009789F1D2
:1034D0002091A605222309F43DC02530D9F1209181
:1034E000E80023FD37C02091E80022FD2FC0209185
:1034F000E80020FFEBCF4091F3002091F20030E094
:10350000342B009759F02830310540F44491409312
:10351000F100319601972F5F3F4FF3CF41E0283004
:10352000310509F040E02091E8002E772093E80073
:10353000CDCF4111CDCF0AC08091A605882351F08F
:10354000853041F08091E80083FD04C08091E8005F
:1035500082FFF2CF8091E8008B778093E80037C03C
:103560008038A9F58091E800877F8093E8008091FA
:10357000A7058093F1008091E8008E778093E800A2
:103580000E94DE1C24C0811122C01091AA051230B5
:10359000F0F48091E800877F8093E8001093A705FE
:1035A0000E94DE1C111106C08091E30087FD02C05D
:1035B00081E001C084E08093A60542E061EC81E0F7
:1035C0000E94FD1C42E261EC82E00E94FD1C8091A1
:1035D000E80083FF1AC08091E800877F8093E800AD
:1035E0008091EB0080628093EB000FC082E190E05D
:1035F000E1EDF9E05DCF89E090E0E8EAF9E058CF4D
:1036000080E490E0E6E5F9E053CFAA960FB6F8948F
:10361000DEBF0FBECDBFDF91CF911F9108951F92E6
:103620000F920FB60F9211242F933F934F935F93F6
:103630006F937F938F939F93AF93BF93CF93DF93BA
:10364000EF93FF93C091E900CF708091EC00D82FE9
:10365000D17080FDD0E81092E9008091F000877F62
:103660008093F00078940E943C181092E9008091B9
:10367000F00088608093F000CD2BCF70C093E900FC
:10368000FF91EF91DF91CF91BF91AF919F918F917A
:103690007F916F915F914F913F912F910F900FBE4E
:1036A0000F901F901895E8EDF0E080818E7F808369
:1036B0001092E2001092DA001092E100A0EEB0E069
:1036C0008C9181608C9380818F77808319BCA7ED6A
:1036D000B0E08C918E7F8C9380818F7E808310925E
:1036E00081050895CF92DF92EF92FF920F931F937F
:1036F000CF93DF93C8EDD0E088818F7E8883E7ED9C
:10370000F0E080818160808384E082BF81E08093EB
:10371000810588818E7F888302EE10E0F801108297
:103720001092DA0081EEC82ED12CF6011082888129
:103730008F77888388818068888388818F7D88835C
:1037400019BC1092A6051092A7051092A50510921B
:10375000A40590EEE92EF12CF70180818B7F808308
:1037600088818160888342E060E080E00E94FD1CE7
:10377000F60180818E7F8083F80180818160808363
:10378000808188608083F70180818E7F808388813B
:1037900080618883DF91CF911F910F91FF90EF900F
:1037A000DF90CF9008951F920F920FB60F921124C1
:1037B0002F933F934F935F936F937F938F939F9339
:1037C000AF93BF93EF93FF938091E10082FF09C015
:1037D0008091E20082FF05C08091E1008B7F8093A1
:1037E000E1008091DA0080FF2AC08091D80080FF3C
:1037F00026C08091DA008E7F8093DA008091D90014
:1038000080FF18C080E189BD82E189BD09B400FE56
:10381000FDCF81E08093A6058091810581110FC0C5
:103820000E94531B0E94721B8091E200846080936F
:10383000E20005C019BC1092A60510928105809186
:10384000E10080FF17C08091E20080FF13C08091EB
:10385000E2008E7F8093E2008091E200806180939D
:10386000E2008091D80080628093D80019BC85E086
:103870008093A6058091E10084FF32C08091E20030
:1038800084FF2EC080E189BD82E189BD09B400FEBC
:10389000FDCF8091D8008F7D8093D8008091E1008A
:1038A0008F7E8093E1008091E2008F7E8093E20022
:1038B0008091E20081608093E2008091A7058823D7
:1038C00011F084E007C08091E30087FD02C081E031
:1038D00001C083E08093A6050E942D220E941F0E46
:1038E0008091E10083FF27C08091E20083FF23C025
:1038F0008091E100877F8093E10082E08093A605BC
:103900001092A7058091E1008E7F8093E100809165
:10391000E2008E7F8093E2008091E20080618093DC
:10392000E20042E060E080E00E94FD1C8091F00037
:1039300088608093F000FF91EF91BF91AF919F91CC
:103940008F917F916F915F914F913F912F910F9048
:103950000FBE0F901F9018952091E4003091E50064
:1039600095E64091EC00842F817040FF22C0809149
:10397000E80080FD1CC08091A605882391F0853069
:1039800091F08091EB0085FD10C04091E4005091D2
:10399000E5004217530729F39A01915011F784E08B
:1039A000089582E0089583E0089581E0089580E01D
:1039B00008954091E80042FFDECF08958091A80568
:1039C00087FF11C08091E80082FD05C08091A605A7
:1039D0008111F8CF11C08091E8008B770BC08091E6
:1039E000A605882349F08091E80080FFF8CF8091F8
:1039F000E8008E778093E8000895982F973058F567
:103A00009093E900981739F07091EC002091ED0047
:103A10005091F00003C0242F762F50E021FF19C0F1
:103A20003091EB003E7F3093EB003091ED003D7F15
:103A30003093ED003091EB0031603093EB007093E8
:103A4000EC002093ED005093F0002091EE0027FF52
:103A500007C09F5FD3CF8F708093E90081E0089506
:103A600080E008952091AE053091AF052617370705
:103A700048F06115710539F42091E8002E77209304
:103A8000E80001C0B90140E061157105A9F120917C
:103A9000A605222309F443C0253009F442C0209131
:103AA000E80023FD40C02091E80022FD32C02091B3
:103AB000E80020FFE9CF4091F3002091F20030E0D0
:103AC000342BFC01CF016115710559F02830310507
:103AD00040F481918093F100615071092F5F3F4F55
:103AE000F1CF41E02830310509F040E02091E800B5
:103AF0002E772093E800C8CF4111C9CF0AC080912A
:103B0000A605882361F0853061F08091E80083FD8F
:103B10000AC08091E80082FFF2CF80E0089582E041
:103B2000089583E0089581E008958091F005811162
:103B300007C08091A605843011F081E0089582E0ED
:103B40000895CF93DF93CDB7DEB72A970FB6F894D9
:103B5000DEBF0FBECDBF84B7877F84BF0FB6F8949A
:103B6000A895809160008861809360001092600049
:103B70000FBE80E8809361001092610085B7806875
:103B800085BF85B7806885BF0E94531B0E94721B4A
:103B90008091E20084608093E20078948091A60591
:103BA0008823A1F01091E9001F709091EC00892FFB
:103BB000817090FD80E8182B1092E9008091E80058
:103BC00083FD0E943C181F701093E90082E084BDC1
:103BD00093E095BD9AEF97BD80936E000E948E1082
:103BE00090E090930C0180930B010E945D110E9464
:103BF0006C11A6EBB5E0E9ECF5E01EE0F12EFE0E4F
:103C000011921D92FE12FCCF8EE090E00E941125D1
:103C10008093B0059093B105FC010E962BEF219394
:103C2000E817F907E1F780E090E00E94A9248D3EB3
:103C30009E4F11F00E94BD158CE090E00E94A124DF
:103C400090E0A0E0B0E08093B2059093B305A0931C
:103C5000B405B093B50589EA8093800089E080932C
:103C6000810024982C983F988AB18F7C8AB96E98ED
:103C7000479A8BB180638BB9769A0E94051180E0D8
:103C800090E00E94A9248D3E9E4F11F00E94BD1528
:103C900082E090E00E94A1248093E10584E090E01E
:103CA0000E94A12490E09093C5058093C40583E011
:103CB00090E00E94A124682F70E080E090E00E94D4
:103CC000E6178DE091E09093C7058093C60599248F
:103CD0009394EE24EA94CC24C394D12C50E1452E45
:103CE00062E1562E78E1A72EB12CE0E48E2E809171
:103CF000A605853009F043C08091A605843009F1FE
:103D00001092C8050FB6F894A895A09260000FBE57
:103D10008092600083B7817F846083BF83B78160B6
:103D200083BF7894889583B78E7F83BF0FB6F8944E
:103D3000A895809160008861809360001092600077
:103D40000FBE8091A505882391F20E948E1090E00D
:103D500090930C0180930B010E945D110E946C11E5
:103D6000E9ECF5E01192FE12FDCF0E94E011E9ECC2
:103D7000F5E081918111F2C0FE12FBCFB8CF0E9415
:103D8000E011E2EEF5E0A9ECB5E000E010E0702F04
:103D90006D9121912627B1F180E090E030E0782EFE
:103DA000A901082E02C0559547950A94E2F740FFF5
:103DB00025C089837A83C60102C0880F991F7A942F
:103DC000E2F73C01862F90E08621972121E0892BA4
:103DD00009F420E02B830E940F158160782F9D83CA
:103DE0008C8349815A816B818D810E941F0DF8015E
:103DF000EE51FA4F80816826608219C001968630A4
:103E0000910569F60F5F1F4F0E30110509F0BFCF06
:103E1000EE82EF8218860E940F158160782F9A87B4
:103E200089874E815F8168858A850E941F0D8091F8
:103E3000DE059091DF050E94E5149C019091DD055F
:103E4000992321F02431310508F47CC08091D905F3
:103E50001091DA0581110BC0111194C02091DB057E
:103E6000211190C02091DC0521118CC06BC09F3FB7
:103E700019F09F5F9093DD05181624F40E94371403
:103E80008093D9058091D90587FF05C00E9437141A
:103E900081958093D905111624F40E9437148093DC
:103EA000DA058091DA0587FF05C00E9437148195F5
:103EB0008093DA053091D905332301F12091DA0599
:103EC0002223E1F045EB3403C0011124892F990F1F
:103ED000990B009719F08093D90502C09092D905EB
:103EE00035EB2303C0011124892F990F990B0097FB
:103EF00019F08093DA0502C09092DA058091DB0513
:103F0000181624F40E9417148093DB058091DB05BA
:103F100087FF05C00E94171481958093DB0580916F
:103F2000DC05181624F40E9417148093DC05809198
:103F3000DC0587FF05C00E94171481958093DC057E
:103F40000E941B151091E0050E941F0E181709F41E
:103F5000CECE0E941F0E8093E005C9CE49BC59BC4D
:103F600009B400FEFDCF8091D8008F7D8093D800EA
:103F70008091E00082608093E0008091E00081FD0C
:103F8000FCCFB5CE9F3F09F074CF7CCF8091050563
:103F900082958F7009F054C080910205882309F43E
:103FA0004FC080913705A091060560910005709182
:103FB00001054091030550910405B6E08A1709F404
:103FC0003FC090E041155105C1F17F3F11F46F3FB3
:103FD000A1F1B89FF001B99FF00D1124E95FFA4FEC
:103FE000218172132AC02081621327C022812111EE
:103FF00024C0238134812417350710F4215031095E
:10400000241B350B283C3105C0F4209105052F7089
:1040100020612093050526E0289FF001299FF00DDF
:104020001124E45FFA4F80818F708061808380E08B
:1040300095E00E942E050C94F01701968770BECF74
:1040400008950E94A816292F2F7092959F70E92F2E
:10405000F0E03297EE30F105B8F4EF55FF4F0C94D5
:104060000B25803F99F018F4803E70F40FC0843F18
:1040700059F40CC0803E50F0813F31F407C0822FCC
:10408000869586958695089580E0089581E0089547
:10409000BF92CF92DF92EF92FF920F931F93CF9335
:1040A000DF93CDB7DEB761970FB6F894DEBF0FBED2
:1040B000CDBF8C0185E0F801DE011D9601900D92C7
:1040C0008A95E1F7D8013C9111962C91119712969F
:1040D000EC9012971396CD90DC90149750910005B8
:1040E000609101058091030590910405009709F402
:1040F0004FC16F3F19F45F3F09F44AC1B090020508
:10410000BB2009F4ECC040910505C816D90628F07B
:10411000F601E81BF90BCF0104C0809590958C0D3A
:104120009D1DFF24F394883C910548F0F12C407FBD
:1041300009F09FC080E095E00E942E0521C1842FE8
:10414000807F09F044C0621312C0531310C0E11005
:104150000EC04F7040614093050580E095E00E94DD
:104160002E0580910505D80115968C932EC0CD287B
:1041700019F12F3F11F43F3FF9F0FE2CE1101CC064
:10418000809137054091060556E0841709F458C020
:1041900090E0589FF001599FF00D1124E95FFA4F0C
:1041A0006181261306C06081361303C062816111EC
:1041B00003C001968770E9CFFE2CEE2009F421C1DF
:1041C00080910505816080930505F12C1AC1621369
:1041D0000AC0531308C0E11006C080910505D8013C
:1041E00015968C93B0C03D872E878D859E850E9445
:1041F00021208823D1F1EE20C1F120910505822FE5
:1042000082958F7090E0029774F0809100059091F4
:10421000010598878F831986DB86CA862C87CE0195
:1042200007960E942E0586E0F801A0E0B5E0019017
:104230000D928A95E1F70E94C61FFF24F394E1C016
:104240003D872E878D859E850E94A816292F229551
:104250002F7030E0223031050CF0C7C09F7009F09C
:10426000C1C0805E883008F4CCC0C8010E942E0511
:10427000E4CF621314C0531312C0E11010C0809138
:104280000505F8018583C8010E942E0586E0E0E05F
:10429000F5E0DF011D928A95E9F7FB2CB2C03D875E
:1042A0002E878D859E850E9421208823F1F2EE20A5
:1042B000E1F220910505822F82958F7090E00297A0
:1042C0000CF4B1CF80910005909101059A83898308
:1042D0001B82DD82CC822E83CE010196A2CFC8162E
:1042E000D90638F0C81AD90AB8ECCB16D10450F068
:1042F00007C0809590958C0D9D1D883C910510F010
:10430000F12C3EC0FE2CEE2009F4AFCF621327C083
:10431000531325C02091050520FD18C0822F8295DA
:104320008F70482F50E04115510581F0F801258329
:104330004F30510541F08F5F982F9295907F822FDB
:104340008F70892B8583C8010E942E0586E0F801B5
:10435000A0E0B5E001900D928A95E1F752C03D874B
:104360002E878D859E850E94212081115CCF8091B2
:104370000505816080930505C8010E942E0541C096
:10438000E0E0F5E086E0DF011D928A95E9F739C0AB
:10439000EE2009F46ACF3D872E878D859E850E9489
:1043A0002120F82E882309F460CF86E0F801A0E0F0
:1043B000B5E001900D928A95E1F78091000590910A
:1043C00001050E94A81692959F70963041F4809145
:1043D000F20591E089278093F2059093F1050E9400
:1043E000C61F0FC081113DCF0CC0243031050CF029
:1043F0003CCF9F7009F435CFF8019581907F09F08B
:1044000030CF8F2D61960FB6F894DEBF0FBECDBFB3
:10441000DF91CF911F910F91FF90EF90DF90CF90A0
:10442000BF90089510927505109274050E94211690
:10443000E7EDF5E086E0DF011D928A95E9F710923D
:10444000DD05109280050E941B1580E090E00E941F
:10445000090E80E090E00C94F30D109276058091A7
:104460000A01882331F08091C40587FF02C08EE1E4
:1044700001C086E0E2EEF4E0DF011D928A95E9F7E3
:104480000C941222882341F080959091760589231F
:10449000809376050C9421160895882339F0909125
:1044A0007605892B809376050C9421160895882330
:1044B00009F463C0823869F40E941F0E81FF5DC059
:1044C00069E380EE94E00E9485150E94211669E35D
:1044D0000EC0833891F40E941F0E80FF4EC063E52A
:1044E00080EE94E00E9485150E94211663E580EE1F
:1044F00094E00E945A150C942116843869F40E94A5
:104500001F0E82FF3AC067E480EE94E00E9485159A
:104510000E94211667E4EBCF9CEF980F913A10F4BC
:10452000682FE5CF90E2980F983088F4877021E0EB
:1045300030E0A90102C0440F551F8A95E2F7CA0175
:10454000809590917605892380937605D4CF9BE55D
:10455000980F933020F480E090E00C94090E98E5D9
:10456000980F973120F480E090E00C94F30D803F99
:1045700020F00E9492130C941B150895CF93C82F1E
:104580000E94D122C93349F42FEF87EE93E02150E6
:1045900080409040E1F700C000008C2FCF910C9438
:1045A0005722882309F416C18238B1F40E941F0EE5
:1045B00081FD10C169E380EE94E00E9485150E94A0
:1045C00021162FEF41EE54E0215040405040E1F7DA
:1045D00000C0000069E317C08338D9F40E941F0EA1
:1045E00080FDF8C063E580EE94E00E9485150E948E
:1045F00021168FEF91EE24E0815090402040E1F7AA
:1046000000C0000063E580EE94E00E945A150C940F
:1046100021168438B1F40E941F0E82FDDBC067E4CE
:1046200080EE94E00E9485150E9421164FEF51EE16
:1046300084E0415050408040E1F700C0000067E452
:10464000E2CF9CEF980F913A30F4682F80EE94E01F
:104650000E948515DCCF90E2980F983080F4877027
:1046600021E030E0A90102C0440F551F8A95E2F70E
:10467000CA0190917605892B80937605C8CF9BE57A
:10468000980F933070F4853A29F0863A31F083E838
:1046900090E005C081E890E002C082E890E00C94D0
:1046A000090E98E5980F973108F08EC0883A09F402
:1046B00045C0893A09F445C08A3A09F445C08B3AA5
:1046C00009F445C08C3A09F445C08B3B09F445C058
:1046D0008C3B09F445C08D3A09F445C0803B09F490
:1046E00045C08E3A09F445C08F3A09F445C0813B74
:1046F00009F445C0823B09F445C0833B09F445C039
:10470000843B09F445C0853B09F445C0863B09F468
:1047100045C0873B09F445C0883B09F445C0893B47
:1047200009F445C08D3B09F445C08E3B09F445C0F2
:104730008A3B09F445C080E090E044C082EE90E0FE
:1047400041C089EE90E03EC08AEE90E03BC085EB30
:1047500090E038C086EB90E035C083EB90E032C04B
:1047600084EB90E02FC087EB90E02CC08CEC90E0C5
:1047700029C08DEC90E026C083E891E023C08AE850
:1047800091E020C082E991E01DC084E991E01AC067
:1047900081E292E017C083E292E014C084E292E0EA
:1047A00011C085E292E00EC086E292E00BC087E283
:1047B00092E008C08FE690E005C080E790E002C07C
:1047C0008AE292E00C94F30D803F20F00E9457148F
:1047D0000C941B1508951092B9008CE08093B800DA
:1047E0000895EF92FF920F931F93CF93DF93182FAB
:1047F000EB011092BC0084EA8093BC000E940F156C
:104800007C019091BC0097FD0EC0CF3F8FEFD80781
:10481000C1F30E940F158E199F098C179D0788F30D
:104820008EEF9FEF2EC09091B900987F983041F0A5
:104830009091B900987F903119F08FEF9FEF21C0D0
:104840001093BB0084E88093BC000E940F158C017C
:104850009091BC0097FD0CC0CF3F8FEFD807C1F3FC
:104860000E940F15801B910B8C179D0788F3D8CFE2
:104870008091B900887F883111F08034F1F680E0B2
:1048800090E0DF91CF911F910F91FF90EF900895ED
:104890000F931F93CF93DF93EB018093BB0084E8CA
:1048A0008093BC000E940F158C019091BC0097FD75
:1048B0000EC0CF3F8FEFD807C1F30E940F15801BAA
:1048C000910B8C179D0788F38EEF9FEF0CC0209102
:1048D000B900287F81E090E0283211F480E090E078
:1048E000919581959109DF91CF911F910F91089535
:1048F0000F931F93CF93DF93EC0184E88093BC0068
:104900000E940F158C019091BC0097FD0EC0CF3F07
:104910008FEFD807C1F30E940F15801B910B8C17E6
:104920009D0788F38EEF9FEF03C08091BB0090E05E
:10493000DF91CF911F910F91089584E98093BC007E
:104940000895F999FECF92BD81BDF89A992780B557
:104950000895A8E1B0E042E050E00C94D524262F61
:10496000F999FECF92BD81BDF89A019700B4021665
:1049700039F01FBA20BD0FB6F894FA9AF99A0FBE13
:1049800008950396272F0E94B0240E94AF24252F5C
:104990000E94B024242F0C94B0240196272F0E944B
:1049A000B0240C94AF24DC01CB01FC01F999FECFBB
:1049B00006C0F2BDE1BDF89A319600B40D924150A7
:1049C0005040B8F70895AA1BBB1B51E107C0AA1FAE
:1049D000BB1FA617B70710F0A61BB70B881F991FA0
:1049E0005A95A9F780959095BC01CD01089597FB44
:1049F000072E16F4009407D077FD09D00E94E32417
:104A000007FC05D03EF4909581959F4F08957095D1
:104A100061957F4F0895EE0FFF1F0590F491E02DF3
:104A20000994CF93DF938230910510F482E090E0F7
:104A3000E091F505F091F60520E030E0C0E0D0E02F
:104A4000309711F14081518148175907C0F048173C
:104A5000590761F482819381209719F09B838A839F
:104A60002BC09093F6058093F50526C021153105DE
:104A700019F04217530718F49A01BE01DF01EF0144
:104A80000280F381E02DDCCF2115310509F1281BCF
:104A9000390B2430310590F412968D919C91139727
:104AA0006115710521F0FB019383828304C090930B
:104AB000F6058093F505FD01329644C0FD01E20F35
:104AC000F31F81939193225031092D933C933AC067
:104AD0002091F3053091F405232B41F4209102013C
:104AE000309103013093F4052093F30520910001E8
:104AF000309101012115310541F42DB73EB74091A8
:104B0000040150910501241B350BE091F305F09150
:104B1000F405E217F307A0F42E1B3F0B2817390703
:104B200078F0AC014E5F5F4F2417350748F04E0F09
:104B30005F1F5093F4054093F3058193919302C056
:104B4000E0E0F0E0CF01DF91CF9108950F931F9344
:104B5000CF93DF93009709F48CC0FC013297138246
:104B600012820091F5051091F6050115110581F4E9
:104B700020813181820F931F2091F3053091F4053C
:104B80002817390779F5F093F405E093F30571C020
:104B9000D80140E050E0AE17BF0750F412962D91B7
:104BA0003C911397AD012115310509F1D901F3CFDE
:104BB0009D01DA013383228360817181860F971F03
:104BC0008217930769F4EC0128813981260F371F7A
:104BD0002E5F3F4F318320838A819B819383828321
:104BE000452B29F4F093F605E093F50542C01396A2
:104BF000FC93EE931297ED01499159919E01240F78
:104C0000351FE217F30771F480819181840F951F9E
:104C1000029611969C938E938281938113969C9316
:104C20008E931297E0E0F0E0D80112968D919C915E
:104C30001397009719F0F8018C01F6CF8D919C9194
:104C400098012E5F3F4F820F931F2091F305309103
:104C5000F4052817390769F4309729F41092F605FE
:104C60001092F50502C0138212821093F40500938E
:104C7000F305DF91CF911F910F910895F894FFCF25
:104C80000000F7052000BA04C001012000AC124B5F
:104C9000132013AF12E512000D010D020D030D04D8
:104CA0000D050D000C010C020C030C040C050C008E
:104CB0000B010B020B030B040B050B000A010A028C
:104CC0000A030A040A050A00090109020903090482
:104CD000090509000801080208030804080508007E
:104CE000070107020703070407050700060106027C
:104CF0000603060406050600050105020503050472
:104D0000050505000401040204030404040504006D
:104D1000030103020303030403050300020102026B
:104D20000203020402050200010101020103010461
:104D3000010501000001000200030004000500005D
:00000001FF
